:020000040800F2
:10000000880800208D0E0008C5020008C7020008FD
:10001000CB020008CF020008D30200080000000055
:10002000000000000000000000000000D7020008EF
:10003000D902000800000000DB020008DD02000811
:10004000A70E0008A70E0008A70E0008A70E0008BC
:10005000A70E0008A70E0008A70E0008A70E0008AC
:10006000A70E0008A70E0008A70E0008A70E00089C
:10007000A70E0008A70E0008A70E0008A70E00088C
:10008000A70E0008A70E0008A70E0008A70E00087C
:10009000A70E0008A70E0008A70E0008A70E00086C
:1000A000A70E0008A70E0008A70E0008A70E00085C
:1000B000A70E0008A70E000813080008A70E0008E6
:1000C000A70E0008A70E0008A70E0008A70E00083C
:1000D000A70E00080B0E0008A70E0008A70E0008C8
:1000E000A70E0008A70E0008A70E0008A70E00081C
:1000F000A70E0008A70E0008A70E0008A70E00080C
:10010000A70E0008A70E00082B090008A70E00087C
:10011000A70E0008A70E0008890A0008A70E00080D
:10012000A70E0008A70E0008A70E0008A70E0008DB
:1001300000F002F800F042F80AA090E8000C8244B7
:100140008344AAF10107DA4501D100F037F8AFF294
:10015000090EBAE80F0013F0010F18BFFB1A43F0A5
:10016000010318474841000068410000103A24BFCD
:1001700078C878C1FAD8520724BF30C830C144BF0C
:1001800004680C607047000000230024002500264E
:10019000103A28BF78C1FBD8520728BF30C148BFEA
:1001A0000B607047642903F0B383732903F05B8409
:1001B000002070471FB51FBD10B510BD03F086FCB1
:1001C0001146FFF7F7FF00F009F803F0A4FC03B4B1
:1001D000FFF7F2FF03BC00F0BDFD000000F050FD92
:1001E0004FF4A06000F072FE4FF4E13000F0C1FD6A
:1001F00000F066F900F08AF940F2671140F2CF7022
:1002000000F002FA40F267114FF6FE7000F077FA44
:1002100041F61F41632000F02EFB41F61F41632091
:1002200000F0D4FB00F06BFB00F018FC00F0AAFC1F
:1002300003F0B6F81C49088008460088C0EB00109F
:100240001A4A02EB40011AA003F0F8FA2AE01C480F
:10025000007858B103F040F813480088C0EB001054
:10026000124A02EB400112A003F0E8FA0E4800889F
:1002700030B1012807D002280AD0032810D10AE0A3
:1002800003F052F90DE003F0CFF903F04DF908E067
:1002900003F0BCF905E003F0C7F903F0B7F900E09B
:1002A00000BF00BFD3E70000480000204B00002043
:1002B000637572726D6F64653A25730D0A000000F4
:1002C00046000020704700BFFEE700BFFEE700BF0A
:1002D000FEE700BFFEE770477047704770470000B9
:1002E0000CB50020019000906C48006840F480300C
:1002F0006A49086000BF6948006800F40030009057
:100300000198401C0190009818B90198B0F5A06FB1
:10031000F1D16248006800F4003010B10120009073
:1003200001E0002000900098012843D15C4800685B
:1003300040F010005A4908600846006820F00300A9
:1003400008600846006840F00200086053484068B2
:10035000524948600846406848600846406840F492
:10036000806048600846406820F47C104860084679
:10037000406840F4E81048600846006840F080702B
:10038000086000BF4548006800F000700028F9D000
:100390004248406820F003004049486008464068F1
:1003A00040F00200486000BF3C48406800F00C008C
:1003B0000828F9D10CBD10B5FFF792FF10BD10B59C
:1003C0003648006840F0010034490860084640683B
:1003D00034490840314948600846006832490840BD
:1003E0002E4908600846006820F48020086008460E
:1003F000406820F4FE0048604FF41F008860FFF75B
:10040000DAFF4FF000602949086010BD10B50021E7
:1004100000200022214B5B6803F00C0121B104296C
:1004200006D0082928D107E0214B224C236027E081
:100430001F4B204C236023E0184B5B6803F47010C3
:10044000164B5B6803F48032022303EB904022B921
:10045000194B4343174C23600DE0104B5B6803F4CA
:10046000003323B1144B4343124C236003E0104B81
:100470004343104C236003E00D4B0E4C236000BF40
:1004800000BF064B5B68C3F303130C4CE15C094BE4
:100490001B68CB40074C236010BD000000100240D9
:1004A000002002400000FFF8FFFFF6FE08ED00E02C
:1004B00000127A000000002000093D000400002026
:1004C00008B50121482001F08BF82020ADF800008C
:1004D00010208DF8030003208DF8020069460948BA
:1004E00000F0C2FD2021074800F06BFE2020ADF88F
:1004F00000006946044800F0B7FD2021024800F0E2
:1005000060FE08BD000C01400018014008B5012143
:10051000442001F065F81C20ADF8000048208DF85B
:1005200003006946354800F09FFD0120ADF800004A
:1005300028208DF803006946314800F095FD08BD7C
:1005400010B5044614B101202E4908702D480078DA
:10055000002837D01021294800F019FE78B1082171
:10056000264800F014FE50B10421244800F00FFE8C
:1005700028B10121224800F00AFE012822D10A20D8
:1005800000F0BBFB00201F49087010211B4800F041
:10059000FEFD08B9012010BD0821184800F0F7FD44
:1005A00008B90220F7E70421144800F0F0FD08B96B
:1005B0000320F0E70121124800F0E9FD01281BD1DA
:1005C0000420E8E710210D4800F0E1FD012813D1D7
:1005D00008210A4800F0DBFD01280DD1042107485D
:1005E00000F0D5FD012807D10121054800F0CFFD1D
:1005F00010B90120034908700020CCE70018014021
:10060000000801401400002030B589B005460C46B2
:100610000121022000F0F1FF01210C2000F0E0FF99
:10062000C020ADF8040018208DF8070003208DF8D5
:10063000060001A9F74800F017FD0320ADF80400FB
:1006400001A9F54800F010FDADF81C50ADF81840B8
:100650000020ADF81E00ADF81A0006A9EF4801F021
:10066000F7F87020ADF808000120ADF80A0000206E
:10067000ADF80E000220ADF8100002A9E74801F025
:1006800024F90821E54801F06FFD02A9E34801F0D3
:100690005EF90821E14801F070FD02A9DF4801F090
:1006A000A3F90821DD4801F075FD02A9DB4801F03E
:1006B000E6F90821D94801F076FD0121D74801F07B
:1006C00023FD09B030BD10B50121D44801F01CFC58
:1006D00010BD10B50021D14801F0AEFE0021CF4879
:1006E00001F0B0FE0021CD4801F0A8FE0021CB486A
:1006F00001F0A6FE0021C94801F006FC10BD30B58E
:1007000089B005460C460121042000F076FF012146
:10071000082000F065FF4FF47070ADF81400282039
:100720008DF8170005A9BC4800F09EFC4FF47071CD
:10073000B94800F048FDADF80C50ADF80840002075
:10074000ADF80E00ADF80A0002A9B54801F080F836
:100750000020ADF81800ADF81A000120ADF81C001B
:100760000020ADF81E00ADF8200006A9AC4801F04D
:1007700002FB0420ADF8180006A9A94801F0FBFA15
:100780000820ADF8180006A9A54801F0F4FA0C20DD
:10079000ADF8180006A9A24801F0EDFA1E208DF868
:1007A000040002208DF8050000208DF806000120CD
:1007B0008DF8070001A800F08EFB002099494860E1
:1007C00097480860012098494860954808600220D1
:1007D00096494860924808600320954948609048CF
:1007E000086009B030BD10B501221E218C4801F00F
:1007F000A6FB01218A4801F087FB10BD10B500223D
:100800001E21874801F09BFB0021854801F07CFBFD
:1008100010BD10B50221824801F03FFE30B1022127
:100820007F4801F04BFE7F4802F0B0FF04217C4876
:1008300001F033FE30B10421794801F03FFE7A48DF
:1008400002F0A4FF0821764801F027FE30B108210C
:10085000734801F033FE754802F098FF102170488C
:1008600001F01BFE30B110216D4801F027FE7048E9
:1008700002F08CFF10BD30B585B005460C46012155
:10088000082000F0BAFE0121042000F0A9FE01209A
:10089000ADF8100028208DF8130004A95D4800F081
:1008A000E3FB01215B4800F08EFCADF80850ADF889
:1008B00004400020ADF80A00ADF8060001A95D482B
:1008C00000F0C6FF00205C49088048800120888035
:1008D0000020C8800881574801F04DFA32208DF879
:1008E000000002208DF8010000208DF80200012098
:1008F0008DF80300684600F0EEFA05B030BD10B583
:10090000012203214B4801F01AFB0121494801F063
:10091000FBFA10BD10B500220321464801F00FFB81
:100920000021444801F0F0FA10BD10B50121414802
:1009300001F0B3FDC8B14148007800F04000A0B11B
:100940003F480088401C3E49088008460088B0F5B2
:10095000967F02D101203B49087039480088B0F5E4
:10096000FA7F02DD38A002F069FF0221314801F070
:1009700094FD30B30A2000F09CF93048007800F074
:10098000400060B100202D4908702D4908800120E9
:10099000304908700021274801F068FC11E029481F
:1009A000007870B900202B49087025490880234839
:1009B000007840F040002149087002211D4801F0F4
:1009C00055FC03211B4801F079FD10BD7FB505469C
:1009D0000C460121102000F010FEADF80850ADF8D3
:1009E00004400020ADF80A00ADF8060001A91A483D
:1009F00000F02EFF36208DF8000002208DF8010057
:100A000000208DF8020001208DF80300684600F0F8
:100A100062FA7FBD00080140000C01400004004064
:100A20000008004098010020BC010020E0010020E7
:100A300004020020000C0040C40000201800002028
:100A40001A00002046000020B0B4BCFC35730D0A2B
:100A5000000000004A0000200010004010B50122F4
:100A600011463A4801F06BFA0121384801F04CFA7E
:100A700010BD10B500220121344801F060FA0021B8
:100A8000324801F041FA10BD10B531480078002815
:100A900040D030480068401C2E4908602E4800783D
:100AA000401C2D4908702B480068B0F5967F02D194
:100AB0002AA002F0C3FE27480068B0F5FA7F12D1E1
:100AC0002948008802F05EFC002021490870214975
:100AD00008602548008818B900202449086002E011
:100AE0000020234908601C480078142812D10020F7
:100AF000194908701C48008830B91C480068C04378
:100B00001C49C1F8940105E019480068C0431A491E
:100B1000C1F8940114480088012803D012480088C5
:100B200003280DD115480068401C14490860084688
:100B30000068192804D100200860012010490870BD
:100B40000121024801F0BAFC10BD00000010004075
:100B5000460000201C00002020000020C4A3CABDC5
:100B6000C8B7C8CF0D0A0000480000209481214278
:100B700094012342008021420000234224000020EF
:100B80002100002000B587B001214FF4017000F072
:100B900027FD4FF4004000F087FC0220ADF8040070
:100BA00000208DF8070001A9334800F05DFA042009
:100BB000ADF8040001A9304800F056FA2F4801F0C2
:100BC00085FE0020029001208DF80C0000208DF899
:100BD0000D004FF4602004900020059001208DF856
:100BE000180002A9254801F098FE0121234801F0D0
:100BF000C0FE224801F0DFFE00BF204801F0E0FE09
:100C00000028FAD11D4801F0E5FE00BF1B4801F0A5
:100C1000E6FE0028FAD107B000BD10B50446072350
:100C200001222146154801F010FF0121134801F06F
:100C3000E0FE00BF0221114802F04CF80028F9D074
:100C40000E4801F069FF10BD2DE9F04107460C4642
:100C50000025002608E03846FFF7DFFF05440520A1
:100C600000F04BF8701CC6B2A642F4DBB5FBF4F002
:100C700080B2BDE8F081000000080140002401407E
:100C800010B56FF0040000F070F92E4800682E498E
:100C9000B0FBF1F02D4908700846007800EB4001E8
:100CA000C1EBC0104FF6FF7101EAC000284908806F
:100CB00010BD0146254A12784A434FF0E0235A619D
:100CC00000229A611A46126942F001021A6100BFBD
:100CD0004FF0E022106900F001021AB100F48032F6
:100CE000002AF5D04FF0E022126922F001024FF005
:100CF000E0231A6100229A6170470146144A128863
:100D00004A434FF0E0235A6100229A611A46126961
:100D100042F001021A6100BF4FF0E022106900F0BA
:100D200001021AB100F48032002AF5D04FF0E0221F
:100D3000126922F001024FF0E0231A6100229A6149
:100D4000704700000000002000127A0028000020F8
:100D50002A000020014600BF704700BF474A1288A2
:100D600002F04002002AF9D0C2B2444B1B1D1A8087
:100D7000704710B586B00446012144F2040000F02B
:100D80002FFC4FF40070ADF8140003208DF816000E
:100D900018208DF8170005A9394800F065F94FF4BF
:100DA0008060ADF8140004208DF8170005A93448C0
:100DB00000F05AF925208DF8000003208DF801007D
:100DC0008DF8020001208DF80300684600F083F8DA
:100DD00001940020ADF80800ADF80A00ADF80C0051
:100DE000ADF810000C20ADF80E0001A9234801F069
:100DF000ACFB012240F22551204801F03EFC0121CC
:100E00001E4801F02EFC06B010BD10B540F2255171
:100E10001A4801F017FD78B3184801F093FCC4B2EA
:100E20001848008800F4004030BBEE2C11D1154862
:100E3000008840F400401349088008460088C0F349
:100E40000D0011490C540F480088401C0D490880C2
:100E500012E00C480088C0F30D000B490C540948FF
:100E60000088401C0749088008460088C0F30D0030
:100E7000C72801DD0020088010BD000000380140B7
:100E80000008014030000020CE00002009488047C3
:100E900009480047FEE7FEE7FEE7FEE7FEE7FEE75C
:100EA000FEE7FEE7FEE7FEE704480549054A064B74
:100EB00070470000BF0300083101000888020020CD
:100EC000880800208804002088040020314901435C
:100ED000314A1160704770B5002100230F22C47899
:100EE00004B32D4C246804F4E064C4F5E064210AE2
:100EF000C1F10403CA40447804FA03F18478144031
:100F000021430901254C0678A155047804F01F05FA
:100F10000124AC4005786D11AD0005F1E025C5F860
:100F2000004109E0047804F01F050124AC401C4D89
:100F30000678761145F8264070BD1A4A0A400243E9
:100F4000154B1B1F1A60704739B1134A121D1268E6
:100F50000243114B1B1D1A6006E00F4A121D126856
:100F600082430D4B1B1D1A607047042808D14FF0B7
:100F7000E021096941F004014FF0E022116107E02E
:100F80004FF0E021096921F004014FF0E0221161E6
:100F9000704700000000FA050CED00E000E400E0FE
:100FA00080E100E080FFFF1F10B50446CC4884427A
:100FB00008D10121042000F02DFB0021042000F0C5
:100FC00029FB46E0C748844208D10121082000F0EF
:100FD00021FB0021082000F01DFB3AE0C2488442BA
:100FE00008D10121102000F015FB0021102000F095
:100FF00011FB2EE0BD48844208D10121202000F0E1
:1010000009FB0021202000F005FB22E0B8488442C3
:1010100008D10121402000F0FDFA0021402000F01D
:10102000F9FA16E0B348844208D10121802000F08B
:10103000F1FA0021802000F0EDFA0AE0AE48844287
:1010400007D10121801500F0E5FA0021A01500F07C
:10105000E1FA10BD10B50121084600F0DBFA0021CD
:10106000012000F0D7FA10BD2DE9F041024600251D
:101070000026002000230024002791F803C00CF074
:101080000F0591F803C00CF0100CBCF1000F03D059
:1010900091F802C04CEA050591F800C0BCF1000FC0
:1010A00031D0146800202BE04FF0010C0CFA00F353
:1010B000B1F800C00CEA03069E4220D183004FF035
:1010C0000F0C0CFA03F7BC4305FA03FC4CEA0404CA
:1010D00091F803C0BCF1280F06D14FF0010C0CFAB7
:1010E00000FCC2F814C00AE091F803C0BCF1480F3C
:1010F00005D14FF0010C0CFA00FCC2F810C0401CE6
:101100000828D1D31460B1F800C0BCF1FF0F34DD62
:10111000546800202EE000F1080C4FF0010808FA96
:101120000CF3B1F800C00CEA03069E4221D1830003
:101130004FF00F0C0CFA03F7BC4305FA03FC4CEA22
:10114000040491F803C0BCF1280F05D100F1080C8C
:1011500008FA0CF8C2F8148091F803C0BCF1480FEB
:1011600007D100F1080C4FF0010808FA0CF8C2F89A
:101170001080401C0828CED35460BDE8F0814FF6A3
:10118000FF710180022181700421C1707047024605
:10119000002093680B400BB1012000E00020704755
:1011A0000146886880B2704702460020D3680B4031
:1011B0000BB1012000E0002070470146C86880B2F2
:1011C000704701617047416170470AB1016100E0F9
:1011D00041617047C16070474FF480320A438261B9
:1011E0008161826182698269704702460020434BB7
:1011F00018684FF68073184040EA021008433F4BCE
:10120000186070473E49C8617047F0B50A46002330
:1012100000240021002500F00046B6F1004F02D165
:10122000364EF16901E0354E7168C0F3034583B273
:1012300000F44016B6F5401F08D121F070612F4E22
:10124000766826F070662D4F7E6012E000F48016FE
:10125000B6F5801F06D1032606FA05F4A14341F036
:10126000706106E0460D360103FA06F6B14341F01F
:10127000706122B1460D360103FA06F6314300F0E3
:101280000046B6F1004F02D11C4EF16101E01B4E49
:101290007160F0BD30B500228B071C0F0F2303FADD
:1012A00004F2164B08338C1053F824309343134C3C
:1012B00008348D1044F8253023468C1053F8243020
:1012C0008C07240F00FA04F423430C4C08348D10CF
:1012D00044F8253030BD0A49DC3108607047000011
:1012E00000080140000C01400010014000140140C2
:1012F00000180140001C0140002001400000014096
:1013000000002042DF48006840F00100DD4908602D
:1013100008464068DC490840DA49486008460068E9
:10132000DA490840D74908600846006820F4802060
:1013300008600846406820F4FE0048604FF41F0033
:1013400088607047CF49096821F48031CD4A116027
:101350001146096821F480211160B0F5803F03D067
:10136000B0F5802F0ED106E0C649096841F48031FE
:10137000C44A116007E0C349096841F4A021C14A89
:10138000116000E000BF00BF704710B501460022A9
:10139000002300204A11012A02D1BA4C236806E03A
:1013A000022A02D1B74C236A01E0B64C636A01F00D
:1013B0001F02012494401C400CB1012000E00020D9
:1013C00010BD38B5002000900024002500BF31205A
:1013D000FFF7DBFF05460098401C00900098B0F531
:1013E000A06F01D0002DF2D03120FFF7CEFF08B161
:1013F000012400E00024204638BD01460020A14A17
:10140000106820F0F80040EAC10010607047A04961
:1014100008607047024600209A4B586820F47C1000
:1014200042EA01031843974B586070479849086691
:10143000704701460020934A506820F0030008439B
:10144000506070478F48406800F00C0070470146BC
:1014500000208C4A506820F0F0000843506070472C
:1014600001460020874A506820F4E060084350603D
:10147000704701460020834A506820F4605040EADB
:10148000C1005060704729B17E4A527A02437D4BB9
:101490005A7204E07B4A527A82437A4B5A727047FE
:1014A0007B49D8310860704701460020754A506872
:1014B00020F440400843506070470021714A2032B8
:1014C0001170704A82F82010012802D004280AD135
:1014D00004E001216B4A2032117005E00521694AC0
:1014E0002032117000E000BF00BF704769490860FA
:1014F00070476449096A0143624A1162704765494D
:1015000044390860704730B50021002200240023D0
:101510005C4D6D6805F00C0121B1042905D0082946
:1015200023D105E05C4D056022E05B4D05601FE0C6
:10153000544D6D6805F47012524D6D6805F4803499
:10154000022505EB92421CB9544D554305600BE052
:101550004C4D6D6805F400351DB1504D5543056087
:1015600002E04D4D5543056002E04B4D056000BF64
:1015700000BF444D6D6805F0F0010909484D6B5CF2
:101580000568DD4045603F4D6D6805F4E061090A7E
:10159000434D6B5C4568DD4085603A4D6D6805F4F0
:1015A0006051C90A3E4D6B5C4568DD40C560354DF4
:1015B0006D6805F44041890B3A4D6B5CC568B5FB1D
:1015C000F3F5056130BD29B12E4A526902432D4B16
:1015D0005A6104E02B4A526982432A4B5A61704790
:1015E00029B1284A92690243264B9A6104E0254AB0
:1015F00092698243234B9A61704729B1214AD2698B
:101600000243204BDA6104E01E4AD26982431D4B3B
:10161000DA61704729B11B4AD2680243194BDA607C
:1016200004E0184AD2688243164BDA60704729B149
:10163000144A12690243134B1A6104E0114A1269F9
:101640008243104B1A617047124940390860704755
:101650000F49C86470470B49C87170470948406A10
:1016600040F0807007494862704701460020054AF3
:1016700092680A400AB1012000E000207047014949
:1016800088727047001002400000FFF8FFFFF6FE6E
:10169000000042428004424200127A0000093D00EC
:1016A000320000204200002010B50446FE4884426B
:1016B00008D10121C014FFF7ADFF0021E014FFF7AE
:1016C000A9FFC4E0B4F1804F08D101210846FFF71B
:1016D000AEFF00210120FFF7AAFFB8E0F3488442E3
:1016E00008D101210220FFF7A2FF00210220FFF70D
:1016F0009EFFACE0EE48844208D101210420FFF7B0
:1017000096FF00210420FFF792FFA0E0E948844201
:1017100008D101210820FFF78AFF00210820FFF7E8
:1017200086FF94E0E448844208D101211020FFF7AD
:101730007EFF00211020FFF77AFF88E0DF48844217
:1017400008D101212020FFF772FF00212020FFF7A0
:101750006EFF7CE0DA48844208D101214014FFF793
:1017600059FF00216014FFF755FF70E0D54884420F
:1017700009D10121C804FFF74DFF00214FF40020DB
:10178000FFF748FF63E0D048844209D101210805F2
:10179000FFF740FF00214FF48010FFF73BFF56E0BA
:1017A000CA48844209D101214805FFF733FF0021CF
:1017B0004FF40010FFF72EFF49E0C548844208D1DE
:1017C00001214020FFF733FF00214020FFF72FFFCA
:1017D0003DE0C048844208D101218020FFF727FF67
:1017E00000218020FFF723FF31E0BB48844208D16D
:1017F00001218015FFF71BFF0021A015FFF717FF40
:1018000025E0B648844209D101210804FFF702FF10
:1018100000214FF48030FFF7FDFE18E0B04884420D
:1018200009D101214804FFF7F5FE00214FF40030F3
:10183000FFF7F0FE0BE0AB48844208D10121880499
:10184000FFF7E8FE00214FF48020FFF7E3FE10BD14
:1018500000220288944B98420ED0994B98420BD0AC
:10186000B0F1804F08D0914B984205D0904B9842F0
:1018700002D0904B984204D14FF68F731A404B8898
:101880001A438D4B984207D08C4B984204D04FF6A8
:10189000FF431A40CB881A4302808B8883850B88CC
:1018A0000385814B98420BD0854B984208D08B4BD7
:1018B000984205D08A4B984202D08A4B984201D177
:1018C0000B7A038601238382704770B500240022BF
:1018D0000023058C4FF6FE7635400584028C838804
:1018E000048B4FF68F752C40B51E2C400D882C4371
:1018F000751E2A400D892A434D882A436A4DA84205
:101900000BD06F4DA84208D0744DA84205D0744D3D
:10191000A84202D0734DA84213D14FF6F7752A4062
:101920004D892A434FF6FB752A408D882A434FF68E
:10193000FF652B404FF6FF552B408D892B43CD89FA
:101940002B4383800483CD888586028470BD70B567
:10195000002400220023058C4FF6EF7635400584E5
:10196000028C8388048B48F6FF752C404FF6FF45A8
:101970002C400D884FF6FF7606EA05252C434FF6DE
:10198000DF752A400D8906EA05152A434D8806EAC7
:1019900005152A43444DA84202D0494DA8421DD105
:1019A0004FF67F752A404D894FF6FF7606EA0515FA
:1019B0002A434FF6BF752A408D8806EA05152A434B
:1019C0004FF6FF352B404FF2FF752B408D8906EA0D
:1019D00085052B43CD8906EA85052B438380048347
:1019E000CD880587028470BD70B5002400220023D5
:1019F000058C4FF6FF6635400584028C8388848B06
:101A00004FF68F752C404FF6FC752C400D882C43FB
:101A10004FF6FF552A400D894FF6FF7606EA052559
:101A20002A434D8806EA05252A431F4DA84202D0C5
:101A3000234DA8421DD14FF2FF752A404D894FF624
:101A4000FF7606EA05252A434FF6FF352A408D88A2
:101A500006EA05252A434EF6FF752B404DF6FF7525
:101A60002B408D8906EA05152B43CD8906EA05151D
:101A70002B4383808483CD888587028470BD70B5B5
:101A8000002200230024058C4EF6FF7635400584A5
:101A9000038C8488828B48F6FF752A404FF6FF45F9
:101AA0002A400D8820E00000002C01400004004086
:101AB00000080040000C00400010004000140040EE
:101AC00000340140004C01400050014000540140EE
:101AD00000180040001C0040002000400040014071
:101AE00000440140004801404FF6FF7606EA052514
:101AF0002A434DF6FF752B400D8906EA05352B4329
:101B00004D8806EA05352B43FA4DA84202D0FA4D1E
:101B1000A84208D14BF6FF752C408D894FF6FF7611
:101B200006EA85152C4384808283CD88A0F8405036
:101B3000038470BD828B4FF2FF331A408283828B05
:101B40004FF6FF7303EA01231A4382837047F0B50F
:101B50000C461546002200210026078C4EF6FF7C1D
:101B600007EA0C070784828B018C4FF6FF7707EAA0
:101B7000043640F6FF473A404FF6FF7707EA05275D
:101B80003A434FF6FF7707EA03373A43D94FB84253
:101B90000ED0D94FB8420BD0B0F1804F08D0D74FFC
:101BA000B84205D0D64FB84202D0D64FB84206D17F
:101BB0004DF6FF77394046F48057394305E047F644
:101BC000FF57394044F48057394382830184F0BD84
:101BD000828B4FF6F3731A408283828B0A4382838F
:101BE0007047F0B50C461546002200210026078CF0
:101BF0004FF6FF6C07EA0C070784828B018C4FF6C7
:101C0000FF7707EA04264FF60C773A404FF6FF7746
:101C100007EA03172F433A43B64FB8420ED0B64FE8
:101C2000B8420BD0B0F1804F08D0B44FB84205D0C5
:101C3000B34FB84202D0B34FB84206D14FF6FF5768
:101C4000394046F48077394305E04FF2FF57394079
:101C500044F48077394382830184F0BD028B4FF2D4
:101C6000FF331A400283028B4FF6FF7303EA01230E
:101C70001A4302837047F0B50C4615460022002136
:101C80000026078C4FF6EF7C07EA0C070784028BCF
:101C9000018C4FF6FF7707EA041640F6FF473A40FB
:101CA0004FF6FF7707EA03373A434FF6FF7707EA25
:101CB00005273A438F4FB8420ED08F4FB8420BD012
:101CC000B0F1804F08D08D4FB84205D08C4FB8424C
:101CD00002D08C4FB84206D14FF6DF77394046F03C
:101CE0001007394305E04FF65F77394044F010079D
:101CF000394302830184F0BD028B4FF6F3731A401F
:101D00000283028B0A4302837047F0B50C461546E6
:101D100000220021068C4FF6FE773E400684028B9F
:101D2000018C4FF60C7632407E1C06EA03162E43D9
:101D30003243704EB0420ED06F4EB0420BD0B0F175
:101D4000804F08D06D4EB04205D06D4EB04202D0EB
:101D50006C4EB04206D14FF6FD76314044F001069C
:101D6000314305E04FF6F576314044F0010631434A
:101D700002830184F0BD70B505460C465D4885427E
:101D80000ED05D4885420BD0B5F1804F08D05B483E
:101D9000854205D05A48854202D05A48854200D132
:101DA00000E000BF208850B92389A28861882846B6
:101DB000FFF7ABFFE1882846FFF79EFF25E020886C
:101DC00004280AD12389A28861882846FFF753FF97
:101DD000E1882846FFF742FF17E0208808280AD14B
:101DE0002389A28861882846FFF7FBFEE188284600
:101DF000FFF7EEFE09E02389A28861882846FFF7F5
:101E0000A6FEE1882846FFF795FE70BD2DE9F0415A
:101E100005460C4600260127608808B9022600E026
:101E20000026A088012801D1022700E00127208890
:101E3000A0B92389A28861882846FFF766FFE18858
:101E40002846FFF759FF23893A4631462846FFF7CF
:101E500012FFE1882846FFF701FF13E02389A288DB
:101E600061882846FFF707FFE1882846FFF7F6FE5E
:101E700023893A4631462846FFF747FFE18828463E
:101E8000FFF73AFFBDE8F0810A884B881A438B8838
:101E90001A43CB881A430B891A434B891A438B89FF
:101EA0001A43A0F8442070474FF6FF71818000214B
:101EB0000180C18041800172704700210180418012
:101EC0008180C180018141818181C1817047002170
:101ED00001804180012181800021C1800181704702
:101EE0000021018041808180C18001814181818107
:101EF00070470000002C0140003401400004004005
:101F000000080040000C004021B1028842F00102AC
:101F1000028004E002884FF6FE731A400280704788
:101F200031B1B0F8442042F40042A0F8442005E06A
:101F3000B0F84420C2F30E02A0F8442070471AB152
:101F400083890B43838102E083898B4383817047BC
:101F50008182704741EA0203A0F8483070471AB105
:101F600083890B43838102E083898B43838170479C
:101F700001894FF6F8721140018170470A4600212D
:101F800001894FF68F73194011430181704730B5B5
:101F900004460D4629462046FFF7F0FF208940F011
:101FA0000700208130BD2DE9F04104460D4616465C
:101FB0001F46602D06D13B46012231462046FFF7E1
:101FC0005AFE05E03B46012231462046FFF79DFEC2
:101FD00029462046FFF7D2FF208940F007002081E4
:101FE000BDE8F08130B50C4600210189C9B24FF639
:101FF000FF7505EA0325154325432943018130BDBB
:102000002DE9F04105460E46174698460024434602
:102010003A4631462846FFF7E5FF2C894FF6F8701F
:10202000044044F007044FF68F70044044F07004FD
:102030002C81BDE8F081F0B504460D4616461F46DA
:102040003B46324629462046FFF7CCFF208940F424
:1020500080402081F0BD0185828270470A460021C0
:1020600001884FF68F731940114301807047F0B516
:102070000C4615461E460021002200230189028BD2
:10208000038C4FF6F877394021434FF6FC473A402E
:1020900040F201173A434FF6DD773B404FF6FF77AA
:1020A00007EA06172F433B43018102830384F0BDF7
:1020B0000A460021018B4FF68F73194011430183AB
:1020C00070470A460021018B48F6FF7319404FF60E
:1020D000FF7303EA02231943018370470A46002174
:1020E000818B4FF68F7319401143818370470A46E5
:1020F0000021818B48F6FF7319404FF6FF7303EA06
:10210000022319438183704721B1028842F0800283
:10211000028004E002884FF67F731A400280704705
:1021200021B1828842F00402828004E082884FF666
:10213000FB731A408280704721B1828842F0080206
:10214000828004E082884FF6F7731A4082807047DD
:1021500021B1828842F00102828004E082884FF639
:10216000FE731A40828070470A460021018B4FF6A9
:10217000F77319401143018370470A460021018B10
:102180004FF2FF7319404FF6FF7303EA022319431E
:10219000018370470A460021818B4FF6F77319407F
:1021A0001143818370470A460021818B4FF2FF73F0
:1021B00019404FF6FF7303EA0223194381837047E6
:1021C0000A460021018B4FF6FB731940114301832E
:1021D00070470A460021018B4FF6FF3319404FF636
:1021E000FF7303EA02231943018370470A46002163
:1021F000818B4FF6FB7319401143818370470A4668
:102200000021818B4FF6FF3319404FF6FF7303EA2D
:1022100002231943818370470A460021018B4FF640
:102220007F7319401143018370470A460021018BD7
:10223000C1F30E014FF6FF7303EA02231943018332
:1022400070470A460021818B4FF67F731940114376
:10225000818370470A460021818BC1F30E014FF63E
:10226000FF7303EA02231943818370470A46002162
:10227000018C4FF6FD7319401143018470470A46E3
:102280000021018C4FF6F773194011430184704708
:102290000A460021018C4FF6DF7319404FF6FF7399
:1022A00003EA02131943018470470A460021018C96
:1022B0004FF67F7319404FF6FF7303EA0213194379
:1022C000018470470A460021018C4FF6FF531940E4
:1022D0004FF6FF7303EA02231943018470470A464D
:1022E0000021018C4FF2FF7319404FF6FF7303EA90
:1022F00002231943018470470A460021018C4DF6E0
:10230000FF7319404FF6FF7303EA02331943018448
:10231000704730B5002301248C40A3B2048C9C4349
:102320000484048C02FA01F5ADB22C43048430BD60
:1023300030B5002304248C40A3B2048C9C43048455
:10234000048C02FA01F5ADB22C43048430BD70B5A3
:102350000346002000241846183001258D40ACB2F9
:102360001D8CA5431D8409B1082909D100EB61002A
:10237000056825F0700505600568154305600EE0E9
:102380000D1FC5F34E052844056825F4E04505609A
:1023900005684FF6FF7606EA02263543056070BDF4
:1023A00021B1028842F00202028004E002884FF666
:1023B000FD731A400280704721B1028842F0040286
:1023C000028004E002884FF6FB731A4002807047D7
:1023D00021B1828842F08002828004E082884FF638
:1023E0007F731A408280704702884FF6F7731A4055
:1023F000028002880A430280704782884FF68F73FA
:102400001A40828082880A438280704702894FF690
:10241000F8731A40028102890A43028170470289D7
:102420004FF67F731A40028102890A430281704786
:102430008184704781857047818670470187704726
:1024400081877047A0F84010704702884FF6FF431D
:102450001A40028002880A43028070470146888E33
:1024600070470146088F70470146888F70470146C4
:10247000B1F8400070470146888C70470146088DCE
:10248000704702460020138A0B400BB1012000E088
:1024900000207047CA430282704730B502460020D0
:1024A00000230024158A05EA0103958905EA010441
:1024B00013B10CB1012000E0002030BDCA430282FC
:1024C0007047000010B50446FB48844209D1012141
:1024D0008803FFF79FF800214FF48040FFF79AF838
:1024E00032E0F648844209D101214804FFF79FF801
:1024F00000214FF40030FFF79AF825E0F0488442BD
:1025000009D101218804FFF792F800214FF48020BF
:10251000FFF78DF818E0EB48844209D10121C80487
:10252000FFF785F800214FF40020FFF780F80BE05B
:10253000E548844208D101210805FFF778F8002119
:102540004FF48010FFF773F810BD2DE9F04786B007
:1025500005460E460024A24600BFA1460027B089CA
:1025600000B100BF2F462C8A4CF6FF700440F08863
:1025700004432C82AC894EF6F3100440B0883189B4
:102580000843718908430443AC81AC8A4FF6FF408D
:102590000440B0890443AC8201A8FEF7B4FFC648EA
:1025A000874202D1DDF810A001E0DDF80CA0A88977
:1025B00000F4004040B10AEBCA0000EB0A10316899
:1025C0004900B0FBF1F807E00AEBCA0000EB0A1083
:1025D00031688900B0FBF1F86420B8FBF0F0040129
:1025E0002009642101FB1089A88900F4004040B152
:1025F000322000EBC900B0FBF1F000F0070004430B
:1026000008E0322000EB09106421B0FBF1F000F08B
:102610000F0004432C8106B0BDE8F0874FF416513B
:10262000016000218180C18001810C214181002154
:102630008181704710B502460020108A4FF2FF03D7
:1026400018400B884C8823438C882343CC88234331
:102650001843108210BD0021018041808180C1801B
:10266000704721B1828942F40052828104E082895C
:102670004DF6FF731A4082817047F0B5034600247F
:1026800000260025002040F66A17B94200D100BF9D
:102690001846C1F3421401F01F06012707FA06F598
:1026A000012C01D10C3004E0022C01D1103000E0EB
:1026B00014301AB107682F43076002E00768AF4380
:1026C0000760F0BD1AB1838A0B43838202E0838ADC
:1026D0008B4383827047028A4FF6F0731A4002825E
:1026E000028A0A430282704782894FF2FF731A40BE
:1026F000828182890A438281704721B1828942F0B6
:102700000202828104E082894FF6FD731A408281C1
:102710007047028A4FF6DF731A400282028A0A4328
:102720000282704721B1028A42F48042028204E0B0
:10273000028A4BF6FF731A4002827047C1F3080207
:102740008280704701468888C0F3080070478189FD
:1027500041F0010181817047028BD2B20283028B6A
:1027600042EA012202837047028B02F47F42028315
:10277000028B0A430283704721B1828A42F0200211
:10278000828204E0828A4FF6DF731A4082827047A9
:1027900021B1828A42F01002828204E0828A4FF6DE
:1027A000EF731A408282704721B1828A42F0080298
:1027B000828204E0828A4FF6F7731A408282704761
:1027C00021B1828942F40042828103E08289C2F30E
:1027D0000E028281704721B1828A42F400628282B5
:1027E00004E0828A4FF2FF731A4082827047828A25
:1027F0004FF6FB731A408282828A0A4382827047B4
:1028000021B1828A42F00202828204E0828A4FF67B
:10281000FD731A408282704702460020B1F5007FA6
:1028200000D100BF13880B400BB1012000E0002055
:10283000704701F40072B2F5007F00D100BFCA43B7
:102840000280704770B50246002400230025002056
:1028500040F66A16B14200D100BFC1F3421501F043
:102860001F03012606FA03F3012D02D19689334096
:1028700006E0022D02D1168A334001E0968A3340E9
:102880000C12012606FA04F41688344013B10CB178
:10289000012000E0002070BD10B50022002340F6AA
:1028A0006A14A14200D100BF0A1201249440A3B2CD
:1028B000DC43048010BD00000038014000440040AB
:1028C00000480040004C00400050004010B5044655
:1028D000FA48844208D101214015FEF79BFE0021F1
:1028E0006015FEF797FE17E0F548844208D10121F4
:1028F0000015FEF78FFE00212015FEF78BFE0BE082
:10290000F048844208D10121C803FEF783FE00216C
:102910004FF40040FEF77EFE10BD30B502460020A9
:1029200000235068E84C20400D790C6844EA0524E7
:10293000204350609068E54C2040D1E902542C437C
:102940004D7944EA450420439060D06A20F4700039
:102950000C7C641EE4B2234340EA0350D06230BDD5
:1029600000210160017141718160C1600121017428
:10297000704721B1826842F00102826003E0826800
:1029800022F001028260704721B1826842F48072B5
:10299000826003E0826822F480728260704710B522
:1029A0000023CBB21AB144681C43446002E044687F
:1029B0009C43446010BD816841F00801816070470C
:1029C000014600208A6802F008020AB1012000E0F6
:1029D00000207047816841F0040181607047014622
:1029E00000208A6802F004020AB1012000E0002001
:1029F000704721B1826842F4A002826003E08268DD
:102A000022F4A00282607047014600208A6802F426
:102A100080020AB1012000E00020704710B50A468C
:102A200000210023416821F46041531E41EA4331F3
:102A3000416010BD21B1426842F40062426003E08F
:102A4000426822F4006242607047F0B504460D46C9
:102A500000200021092D11DDE068A5F10A0606EB32
:102A60004607072606FA07F18843A5F10A0606EB92
:102A7000460603FA06F10843E0600CE0206905EB26
:102A80004507072606FA07F1884305EB450603FAD2
:102A900006F108432061072A0FDA606B561E06EB29
:102AA00086071F2606FA07F18843561E06EB8606A0
:102AB00005FA06F10843606322E00D2A0FDA206B65
:102AC000D61F06EB86071F2606FA07F18843D61F96
:102AD00006EB860605FA06F10843206310E0E06A7B
:102AE000A2F10D0606EB86071F2606FA07F18843BA
:102AF000A2F10D0606EB860605FA06F10843E06230
:102B0000F0BD21B1826842F48012826003E08268E5
:102B100022F48012826070470146C86C80B2704710
:102B200066484C300068704721B1426842F48062C8
:102B3000426003E0426822F480624260704721B143
:102B4000426842F48052426003E0426822F48052BC
:102B5000426070470A460021816821F4E041114338
:102B60008160704721B1826842F40042826003E0D4
:102B7000826822F400428260704721B1826842F488
:102B80000212826003E0826822F4021282607047BF
:102B9000014600208A6802F400120AB1012000E018
:102BA00000207047F0B5044615460020002200269C
:102BB000092911DDE068A1F10A0707EB470C072797
:102BC00007FA0CF29043A1F10A0707EB470703FA53
:102BD00007F21043E0600CE0206901EB410C07278D
:102BE00007FA0CF2904301EB410703FA07F2104396
:102BF0002061A06BC0F30156EF1C06F1010CA7EB9E
:102C00000C0707EB870C1F2707FA0CF29043EF1C09
:102C100006F1010CA7EB0C0707EB870701FA07F297
:102C20001043A063F0BD10B50A4600210023816B5C
:102C300021F44011531E41EA0351816310BD08B5D0
:102C4000002300930090009B0B440093009B1A60AC
:102C500008BD08B5024600200090009201F128004E
:102C6000009B184400900098006880B208BD0A4696
:102C700000214168164B1940114341607047416281
:102C8000826270470A460021416821F01F0111430A
:102C90004160704740B109490831096841F40001B9
:102CA000064A0832116007E004490831096821F436
:102CB0000001024A08321160704700000024014000
:102CC00000280140003C0140FFFEF0FFFDF7F1FF4E
:102CD000FFFD3FFF0246002013680B400BB10120AF
:102CE00000E000207047CA430260704770B502469A
:102CF0000020002300240B125568CEB205EA06041A
:102D000015681D4015B10CB1012000E0002070BD18
:102D100000220A12D34303607047000001460020DE
:102D2000FE4A106800F03800084310607047FB4905
:102D3000096821F00801F94A116011460968014348
:102D400011607047F549096821F01001F34A1160DC
:102D500011460968014311607047F148EF49486026
:102D6000F04848607047EE48EC494860ED484860DC
:102D70007047EA48006940F08000E8490861704700
:102D8000E648006940F08000E4490861704704208B
:102D9000E249C96801F0010109B101200EE0DF49F3
:102DA000C96801F0040109B1022007E0DB49C968E4
:102DB00001F0100109B1032000E00420704700B5C4
:102DC00002460423FFF7E3FF034603E0FFF7DFFFBC
:102DD0000346521E012B01D1002AF7D102B9052367
:102DE000184600BD30B5044604254FF43020FFF7E7
:102DF000E6FF0546042D17D1C848006940F00200DF
:102E0000C649086108464461006940F04000086115
:102E10004FF43020FFF7D3FF0546C048006941F664
:102E2000FD710840BD490861284630BD10B5042435
:102E30004FF43020FFF7C3FF0446042C16D1B748E7
:102E4000006940F00400B54908610846006940F097
:102E5000400008614FF43020FFF7B1FF0446AF484F
:102E6000006941F6FB710840AC490861204610BD7D
:102E700000B502460423FFF78AFF034603E0FFF78D
:102E800086FF0346521E012B01D1002AF7D102B959
:102E90000523184600BD10B504244FF43020FFF779
:102EA000E7FF0446042C16D19C48006940F004005A
:102EB0009A4908610846006940F0400008614FF4F3
:102EC0003020FFF7D5FF04469448006941F6FB71B6
:102ED000084092490861204610BD00208F49C96909
:102EE00001F0020109B1012000E00020704730B577
:102EF000A5250424FFF7F1FF00B100254FF4302091
:102F0000FFF75DFF0446042C3AD185488349886069
:102F1000844888600846006940F02000086108463F
:102F2000006940F0400008614FF43020FFF747FF90
:102F30000446042C1BD17948006941F6DF71084032
:102F4000764908610846006940F01000086176483B
:102F50000580E002FFF733FF0446052C10D06F48D0
:102F6000006941F6EF7108406C49086108E0052CE2
:102F700006D06A48006941F6EF7108406749086168
:102F8000204630BD78B506460C460425002000904A
:102F9000E802FFF714FF0546042D24D15F480069BD
:102FA00040F001005D4908613480E802FFF707FF47
:102FB0000546042D10D1B01C0090200C009908800B
:102FC000E802FFF7FCFE05465448006941F6FE7131
:102FD00008405249086106E05048006941F6FE7118
:102FE00008404E490861284678BD70B504460D4634
:102FF0000426F002FFF7E3FE0646042E11D14748EF
:10300000006940F00100454908612580F002FFF7A2
:10301000D6FE06464148006941F6FE7108403F4928
:103020000861304670BD70B505460E460424E002C6
:10303000FFF7C5FE0446042C17D13948374988608C
:10304000384888600846006940F0100008612E800A
:10305000E002FFF7B4FE0446052C06D02F480069B5
:1030600041F6EF7108402D490861204670BD2DE9F9
:10307000F04304464FF6FF763746B046B146042586
:10308000E443E6B2C4F30727C4F307484FEA1469E0
:10309000E802FFF794FE0546042D49D120481F4958
:1030A0008860204888600846006940F01000086188
:1030B000FF2E06D01C4808300680E802FFF77FFE8E
:1030C0000546042D08D1FF2F06D017480A30078087
:1030D000E802FFF774FE0546042D0AD1B8F1FF0F90
:1030E00007D011480C30A0F80080E802FFF767FE17
:1030F0000546042D0AD1B9F1FF0F07D00A480E305A
:10310000A0F80090E802FFF75AFE0546052D0FD003
:103110000248006941F6EF71084007E000200240D4
:1031200023016745AB89EFCD00F8FF1F66490861B1
:103130002846BDE8F08330B5054604244FF430201E
:10314000FFF73DFE0446042C41D160485E4988608B
:103150005F4888600846006940F020000861084622
:10316000006940F0400008614FF43020FFF727FE6F
:103170000446042C22D15448006941F6DF7108400E
:10318000514908610846006940F0100008611DB10E
:1031900000205049088002E0A5204E4908804FF4E5
:1031A0003020FFF70CFE0446052C10D0464800697D
:1031B00041F6EF7108404449086108E0052C06D04B
:1031C0004148006941F6DF7108403F4908612046E7
:1031D00030BDF0B505460E46174604243B483A4933
:1031E00088603B488860E002FFF7E9FD0446042C54
:1031F00019D13548006940F010003349086147F0A3
:10320000F800304328433349891C0880E002FFF767
:10321000D6FD0446052C06D02B48006941F6EF7117
:103220000840294908612046F0BD2748C069800848
:1032300070472548006A704700202349096801F05B
:10324000200109B1012000E00020704729B11E4A89
:10325000126902431C4B1A6104E01B4A1269824343
:10326000194B1A61704701460020012908D1164AFE
:10327000D26902F001020AB1012008E0002006E054
:10328000114AD2680A400AB1012000E000207047CC
:103290000D49C860704704200B49C96801F001015D
:1032A00009B101200EE00849C96801F0040109B123
:1032B000022007E00449C96801F0100109B10320A8
:1032C00000E0042070470000002002402301674511
:1032D000AB89EFCD00F8FF1F10B533480088C0EB75
:1032E0000010324A02EB400131A000F0A7FAFDF7CE
:1032F000F0F9FDF783FA34480078002841D03AE02D
:103300000020FDF71DF9042835D100202F49086061
:1033100025480088401C2449088008460088042865
:1033200001DB002008802048008830B101280CD043
:10333000022812D003281CD115E0FDF7C4F9FDF7CF
:1033400052FA23A000F07AFA14E0FDF7BCF9FDF779
:103350004AFA21A000F072FA0CE0FDF7B4F920A0BF
:1033600000F06CFA06E0FDF7AEF91FA000F066FA77
:1033700000E000BF00BF1E4800780028C0D11D49F2
:10338000087010BD10B50446FFF7E7FC1A48FFF7B8
:1033900029FD21461848FFF728FEFFF7EAFC10BD7B
:1033A0001548008870470000480000204B000020AE
:1033B000B5B1C7B0CBF9B4A6C4A3CABDCEAAA3BA4F
:1033C00025730D0A000000004A0000201C000020A8
:1033D0004D4F4445310D0A004D4F4445320D0A0012
:1033E0004D4F4445330D0A004D4F4445340D0A00FE
:1033F000460000201800002000F8070801460022BF
:10340000B54800787E2804D00020B44B18800120F5
:103410007047B1488078B04B5B7840EA0322AE4BEE
:10342000901C185CEE2804D00020AC4B18800120C2
:10343000EEE7A948C0780870A74880794870A64888
:103440004079A54B1B7940EA0320B0F5FA6F1ADCEE
:10345000A148007AA04BDB7940EA0320B0F5FA6F6F
:1034600011DC9D4840799C4B1B7940EA0320488041
:103470009948007A984BDB7940EA03208880002045
:10348000964B1880C4E70020944B18800120BFE7BA
:1034900038B50446A0880090638862782178904807
:1034A00000F0CCF9207840B161888E48FEF7C4FF67
:1034B00000218C48FEF7C4FF07E000218948FEF791
:1034C000BBFF61888748FEF7BBFF607840B10021F1
:1034D0008448FEF7B3FFA1888248FEF7B3FF07E0F8
:1034E000A1888048FEF7AAFF00217E48FEF7AAFFC8
:1034F00038BD0FB42DE9F041DDE90B12881800F05A
:10350000D1FD06460B9800F0CDFD0746314600F090
:10351000E7FC0546744900F0D9FD044600F0A2FD21
:10352000BDE8F0015DF814FB00B585B00020039004
:1035300004906E48007A00F08000A0B100208DF861
:103540000C006A48D0E90612006ACDE90012029028
:10355000664808300FC8FFF7CCFF80B2ADF80E0008
:103560000020624908726248007A00F08000A0B131
:1035700000208DF80D005E48D0E90621006ACDE9F3
:10358000002102905A4808300FC8FFF7B2FF80B2FE
:10359000ADF810000020564908725648007A00F035
:1035A0008000A0B101208DF80C005248D0E906211E
:1035B000006ACDE9002102904E4808300FC8FFF79D
:1035C00098FF80B2ADF80E0000204A4908724A48C0
:1035D000007A00F08000A0B101208DF80D0046486F
:1035E000D0E90612006ACDE9001202904248083084
:1035F0000FC8FFF77EFF80B2ADF8100000203E49F3
:10360000087203A8FFF744FF05B000BD1CB533489E
:10361000008800F4004030B16846FFF7EFFE10B9B3
:103620006846FFF735FF1CBD2DE9FE4F4FF0000A3D
:10363000D3463248007860B30020304908700A2130
:103640000120FDF701FB82460A210220FDF7FCFA6A
:103650008346504600F026FD009000F015FC07461A
:103660004FF06632264B00F0DBFA054600F05EFABA
:103670000446584600F016FD009000F005FC054693
:103680004FF066321E4B00F0CBFA074600F04EFAC0
:103690008146204600F0F8FB05461A4A1A4B00F016
:1036A000BDFB08D20020ADF8060001A8FFF7F0FE30
:1036B00016A000F0C3F8484600F0E6FB0546114AA4
:1036C000114B00F0ABFB05D20020ADF8080001A8BB
:1036D000FFF7DEFEBDE8FE8FCE00002030000020A8
:1036E00064420008000400400000FA4498010020F1
:1036F000BC010020E0010020040200202100002085
:1037000066664A3F3D0AD7A3703D0A406D6F746FED
:103710007231206F7665720D0A00000070B50546A3
:103720000C461CB92846FEF799FE70BD012C03D14A
:103730002846FEF796FEF8E7022C03D12846FEF74E
:1037400093FEF2E7032C03D12846FEF790FEECE748
:103750000020EAE770B506460C4615461CB9294616
:103760003046FEF783FD012C03D129463046FEF793
:103770008FFD022C03D129463046FEF7A3FD032C12
:1037800003D129463046FEF7B7FD70BD10B504469B
:10379000207A00F0400000B321792068FFF7BEFFD7
:1037A0002061D4E90301814203D24FF6FF71A16188
:1037B00001E00021A161D4E90301091AA0690144D3
:1037C000E16100202072207A40F0200020722179EF
:1037D00000222068FFF7BEFF2DE0207A00F02000D5
:1037E000D8B121792068FFF799FF6061D4E904011D
:1037F000814203D24FF6FF71A16101E00021A16176
:10380000D4E90401091AA069014421620020207250
:10381000207A40F0800020720DE021792068FFF7C7
:103820007DFFE060207A40F0400020722179022282
:103830002068FFF78FFF10BD704700000FB40449E8
:1038400010B503AA029800F013F910BC5DF814FB40
:103850002C0000202DE9F0410E4604460020206295
:103860002046E168884730B3252805D0D4E90121F6
:103870009047206A401CF2E7E1682046002788470D
:10388000050018D0A5F14100192802D820354FF4C1
:1038900000673246294620462760FCF783FC40B18A
:1038A000012804D0F61D26F007060836D8E7361D95
:1038B000D6E72846DAE7206ABDE8F08170B50C4605
:1038C0000546012A05D02878800600D5EA6900233C
:1038D00002E0012305E05B1C934202D2E05C002879
:1038E000F9D1A869E618C01AA861286A18442862A4
:1038F0002846AFF3008004E0D5E9012114F8010B5C
:103900009047B442F8D32846AFF3008070BD000062
:103910002DE9F0410646002410687529314616A5A8
:1039200010D0AFF30080002802DA404213A507E070
:1039300031688A0701D512A502E0490704D511A50F
:10394000012401E0AFF3008000210A2206F12407E0
:1039500009E0B0FBF2FCB0FBF2F302FB1C003030DC
:1039600078541846491C0028F3D123462A4630468D
:10397000BDE8F04100F00CB8000000002D00000090
:103980002B00000020000000704770477047704710
:103990002DE9F0470D4699469246044600F1240869
:1039A0000168880604D5E06921F01001216000E07B
:1039B0000120A84201DD471B00E00027A1697A1918
:1039C00002EB0900081AA0612078C00602D4204644
:1039D000AFF30080002608E0D4E901211AF80600C0
:1039E0009047206A401C761C20624E45F4DB20780C
:1039F000C0060AD52046AFF3008006E0D4E90121D5
:103A000030209047206A401C2062381EA7F1010731
:103A1000F4DC07E0D4E9012118F805009047206A9A
:103A2000401C2062281EA5F10105F3DC2046AFF3FF
:103A300000802078000602D50220BDE8F087012032
:103A4000FBE710B5436913B1AFF3008001E0FFF766
:103A500035FF012010BD127800F124010A70002208
:103A60004A700122EDE711684FF0FF32E9E70000EC
:103A7000074B70B50D467B4400F011F8044628460C
:103A800000F020F810B14FF0FF3070BD204670BD3F
:103A9000E1D2FFFF01694A1C02610878704700B556
:103AA0008FB0CDE901310021059105497944CDE977
:103AB000031011466846FFF7CDFE0FB000BD0000B1
:103AC000E5FFFFFF007B00F080007047754600F0C7
:103AD00029F8AE4605006946534620F007008546A2
:103AE00018B020B5FDF7E0F9BDE820404FF0000622
:103AF0004FF000074FF000084FF0000B21F00701D6
:103B0000AC46ACE8C009ACE8C009ACE8C009ACE818
:103B1000C0098D4670470446AFF300802046FCF78D
:103B200056FB0000004870472802002021F00042A8
:103B3000A2F16052B2F5801F01F0004328BFD2F11C
:103B40007F6C0BD95FEA001C43EAC20242EB507063
:103B500018BF704728BF20F001007047B2F5801FE2
:103B6000BCBF184670474FEA410C1CF5001F02D23B
:103B7000084600F072BB70B500F0FCF80000008948
:103B8000FFF7F6BF4FF00040A0F5800070474910E6
:103B900058BFC1F140415B1058BFC3F140438B4255
:103BA000EFF300807047000051EA030C17D41CF5B6
:103BB000801F58BFBCF5801F00F10680994218BFD6
:103BC000704708BF9042704707D711F5801F58BF54
:103BD00013F5801F19D499427047894270471CF52C
:103BE000801F08D5BCF5801FF7D58B4218BF7047E2
:103BF00008BF824270474FF4001C1CEB410F38BFD6
:103C00001CEB430F01D28B42704770B500F0B2F845
:103C1000922449004FF000514FF08053FFF7B7BF97
:103C2000DFF848C170B51CEA111E1EBF1CEA13154F
:103C30009EEA0C0F95EA0C0F00F06F8081EA0304F6
:103C400023EA4C134EEAD47E21EA4C1141F4801150
:103C500043F48013AE44A1FB024CA0FB0365AEF11C
:103C60007F7E361955EB0C05A1FB034C4CF100038C
:103C7000A0FB021C16EB0C06654153F10003094240
:103C800018BF46F0010613F4007F0BD14FEA033151
:103C90004FEA0530340341EA155140EA16506FF0FF
:103CA00003020AE04FEAC3214FEAC520F40241EAC9
:103CB000555140EA56506FF0020202EB2E4201EBE2
:103CC000025585EACE710AD05FEA440C18BF24F091
:103CD000004450F1000041F1000120EAD47040F2AC
:103CE000FE7C624500D270BDA84214BF4FF08044F4
:103CF0004FF04044002E08BF0024BEF1806FA8BFE3
:103D0000A1F1C041BDE8704080F282804FF0000018
:103D100001F1C04101F0004170479EEA0C0F0CEA2E
:103D2000131518BF95EA0C0F06D04FF0000081EA7A
:103D3000030E0EF0004170BD00F01CF88900013E3A
:103D400000F007B800F009B84FEA430C5FEA5C5C8A
:103D500008D081EA030100F05BB84FEA410C5FEA4A
:103D60005C5CF6D14FF00000014970470000FF078E
:103D70000000F87F0EF1020E2EF0030E5EF8046BC9
:103D8000364205D4012A43EB030515F5001F12D86E
:103D9000012841EB010C1CF5001F0CD80ED14FEA95
:103DA000D17C15F5001F0CEB4C0C0CF1020C08BF7C
:103DB0004CEBD37C04E04FF0080C01E04FEAD37CDD
:103DC0000CEB4C0526FA05F606F00706B6F1040CD6
:103DD00006D20EEB860CBDE870404CF0010C60473B
:103DE000DFE80CF0090B02024FF000414FF0000039
:103DF000A1F5002170BD19461046012851EB0104C0
:103E000018BFD4F5001484BF002001F0004170BD3C
:103E10000808A0F500114FEA3101704753EA010C80
:103E200017D41CF5801F58BFBCF5801F00F1068019
:103E30008B4218BF704708BF8242704707D713F5FF
:103E4000801F58BF11F5801F19D48B4270479B42C9
:103E500070471CF5801F08D5BCF5801FF7D5994227
:103E600018BF704708BF904270474FF4001C1CEB0E
:103E7000430F38BF1CEB410F01D2994270470FB47A
:103E80000CBC03BCFFF7C1BE43004FEAD30C4FEAA2
:103E90003C0C43401FBF40070CF1605113F0FE4F34
:103EA00070471CF0006F03D100200CF000417047F8
:103EB0000CF0004343EA507010B540EACC0000F02B
:103EC00086F900BF000000924FEA0001FFF7A0BF93
:103ED0004FF000414FF00000A1F5002170470000B5
:103EE0004FF47F0C1CEAD0121EBF1CEAD11392EAD9
:103EF0000C0F93EA0C0F00F0858090EA010F48BF89
:103F000042F4807240F4000C41F400002CF07F4138
:103F100020F07F4000B58142A2EB03020FF2081CA3
:103F2000ACEB504EC0F100009EF800E04FEA4E0EA0
:103F300000FB0EFC38BF49004FEA2C1C02F5FA02C8
:103F40000CFB0EF34FEACE1E4FEA112C4FEAC121B3
:103F50000EEB635E42EB22420EFB0CFC4FEA1C535D
:103F600000FB03114FEA112C4FEA01310EFB0CFC50
:103F70004FEADC4C00FB0C11C14228BF09184CEB86
:103F800003335DF804EB10EB410143EBC250B2F593
:103F90007C0F38BF704729D512F0F00F1CBF00F11D
:103FA000C04000F00040704700818283848586878E
:103FB00088898B8C8D8E8F919293959697999A9CE8
:103FC0009D9FA0A2A3A5A7A8AAACAEB0B2B3B5B757
:103FD000B9BCBEC0C2C5C7C9CCCED1D4D7D9DCDF2D
:103FE000E2E6E9ECF0F3F7FAFE0000004FEA400CDD
:103FF0000CF1807CBCF17E4F28BF7047B0F1C0400F
:1040000000F02BB990EA010F0CEAD11348BF42F43B
:104010008072624538BF634507D213F47F0F16D014
:1040200080EA010000F00040704710B500F0CFF8C2
:10403000097EFC3E00F005B880EA010000F0004077
:10404000704780EA010000F0004000F006B912F469
:104050007F0F04BF0248704780EA010000F0FDB8FE
:104060000000C07FC10DD1F19E0206DB4FEA0023A4
:1040700043F0004323FA02F07047004207D54FEAAD
:104080004001B1F1FE4F02D24FF00000704710B571
:1040900000F09DF849922480002070476FEA2000CC
:1040A00070470000B0FA80F310FA03F2C3F19D03E9
:1040B0000AD0D90501EB1220530638BF704700F132
:1040C000010008BF20F00100704700004FF47F0C92
:1040D0001CEAD0121EBF1CEAD11392EA0C0F93EA1D
:1040E0000C0F00F0478090EA010F48BF42F4807245
:1040F0004FF0004C4CEA00204CEA012102EB030295
:10410000A0FB0113A2F50002002918BF43F0010330
:104110005B0028BF4FEA330342EB22425FEA132CD5
:104120004CEBC2502EBFBCEB436FB2F57C0F704717
:104130004FEA036CBCF1004F08BF20F00100B2F55C
:104140007C0F38BF70470BD582F0FF0212F5803F1D
:10415000C8BF704700F1C040D8BF00F000407047B2
:1041600000F5000C5FEA4C0C48BF7047B0F1C0404E
:1041700000F073B890EA010F0CEAD11348BF42F483
:104180008072624538BF634504D280EA010000F0C6
:104190000040704710B500F01AF800BF8900013EDA
:1041A00000F007B800F009B85FEA410C5FEA1C6C48
:1041B00008D080EA010000F050B85FEA400C5FEAE6
:1041C0001C6CF6D14FF00040A0F5800070470EF156
:1041D000020E2EF0030E5EF8044B244204D44FEA84
:1041E0004102B2F17F4F11D84FEA4003B3F17F4F44
:1041F0000CD80ED14FEAD07CB2F17F4F0CEB4C0CB7
:104200000CF1020C08BF4CEBD17C04E04FF0080C21
:1042100001E04FEAD17C0CEB4C0324FA03F404F0E8
:104220000704B4F1040C06D20EEB840CBDE8104078
:104230004CF0010C6047DFE80CF0070802024FF079
:104240000040A0F5800010BD0846420018BFD2F122
:10425000807288BF00F0004010BDFF2141EAD050BD
:10426000C00570476D6F746F72315F6472656374FF
:10427000696F6E3A2564206D6F746F72325F64727D
:10428000656374696F6E3A2564206D6F746F723167
:104290005F70776D3A2564206D6F746F72325F7056
:1042A000776D3A2564200D0A00000000CC4200081A
:1042B00000000020C40000006C01000890430008CA
:1042C000C4000020C40700008801000800A24A04BE
:1042D00000000000000000000102030406070809B6
:1042E00001000000000000000000000000000000CD
:1042F00000000000000000000000000000000000BE
:104300000000010203040102030406070809020475
:104310000608000000000050504D5F4E5F4F5645AC
:104320005243555252454E545F4D4F444500000094
:10433000000000000050504D5F4F5645524355520B
:1043400052454E5400000000000000000000000034
:10435000000000554152545F4E5F4F564552435541
:104360005252454E545F4D4F44450000000000003E
:1043700000554152545F4F56455243555252454E97
:10438000545F4D4F44450000000000000000000055
:0400000508000131BD
:00000001FF
